:0400000063EF00F0BA
:06000800328265ED00F0FC
:100018003280D8CF13F0E8CF14F0E0CF15F0FACF44
:1000280016F0FBCF17F0E9CF18F0EACF19F0E1CFBF
:100038001AF0E2CF1BF0D9CF1CF0DACF1DF0F3CFC6
:100048001EF0F4CF1FF0F6CF20F0F7CF21F0F8CF55
:1000580022F0F5CF23F032C024F033C025F034C0AD
:1000680026F035C027F027C035F026C034F025C06B
:1000780033F024C032F023C0F5FF22C0F8FF21C0BE
:10008800F7FF20C0F6FF1FC0F4FF1EC0F3FF1DC01E
:10009800DAFF1CC0D9FF1BC0E2FF1AC0E1FF19C07C
:1000A800EAFF18C0E9FF17C0FBFF16C0FAFF15C02A
:1000B800E0FF14C0E8FF13C0D8FF3290100079EFBA
:1000C80001F00600FACF01F0FBCF02F0E9CF03F010
:1000D800EACF04F0E1CF05F0E2CF06F0D9CF07F080
:1000E800DACF08F0F3CF09F0F4CF0AF0F6CF0BF02F
:1000F800F7CF0CF0F8CF0DF0F5CF0EF032C00FF0BF
:1001080033C010F034C011F035C012F0F2A28FEFF6
:1001180000F091EF00F0B2EF00F0F2A896EF00F0D7
:1001280098EF00F0B2EF00F0F292F1AC9EEF00F021
:10013800A0EF00F0A8EF00F0000E2F6E000E2E6E5C
:10014800D58EF19CC7EF00F0D59EF18C000E2D6E78
:10015800010E2C6EC7EF00F0C7EF00F0F2A4B7EF66
:1001680000F0B9EF00F0C7EF00F0F2AABEEF00F020
:10017800C0EF00F0C7EF00F0F2942E4A2F2AC7EF25
:1001880000F0C7EF00F012C035F011C034F010C015
:1001980033F00FC032F00EC0F5FF0DC0F8FF0CC0F1
:1001A800F7FF0BC0F6FF0AC0F4FF09C0F3FF08C051
:1001B800DAFF07C0D9FF06C0E2FF05C0E1FF04C0AF
:1001C800EAFF03C0E9FF02C0FBFF01C0FAFF329259
:1001D800110090EC01F05BEC01F0F3EF00F02C5013
:1001E8002D10D8B4FAEF00F0FCEF00F0F3EF00F0B8
:1001F800000E2D6E000E2C6E30503110D8B407EF63
:1002080001F009EF01F04CEF01F02FBE15EF01F0FE
:100218002F5009E1110E2E5CD8A015EF01F017EF51
:1002280001F043EF01F036EF01F036EF01F089807D
:10023800060E296E130E286EAE0EE82EFED7282E57
:10024800FCD7292EFAD78990060E296E130E286E30
:10025800AE0EE82EFED7282EFCD7292EFAD7898095
:1002680036EF01F02C502D10D8B43DEF01F03FEFE0
:1002780001F01BEF01F046EF01F046EF01F0898035
:1002880046EF01F0000E316E000E306EF3EF00F015
:100298008990000E316E010E306EF3EF00F0F3EF2F
:1002A80000F0F3EF00F0F3EF00F063EF00F0000E62
:1002B800806E000E896E000E816E000E8A6EC180FF
:1002C800C182C184C186000E926E010E936ED58CD8
:1002D800D59AD596D580D582D584F28EF288F28AC1
:1002E800F184F18CF286F1801200320EF66E030E64
:1002F800F76E000EF86E0900F5CF30F00900F5CF63
:1003080031F02F6A2E6A2D6A2C6A2B6A2A6A32907B
:1003180032920001EDEF00F0D350FC0B0209D36ECE
:0C032800D3508F0B6009D36E120001004F
:020000040020DA
:08000000FFFFFFFFFFFFFFFF00
:020000040030CA
:0E0000000009191EFF8080FF0FC00FE00F40A7
:00000001FF
