:0400000063EF00F0BA
:060008003F829AED13F0A7
:100018003F80D8CF14F0E8CF15F0E0CF16F0FACF34
:1000280017F0FBCF18F0E9CF19F0EACF1AF0E1CFBB
:100038001BF0E2CF1CF0D9CF1DF0DACF1EF0F3CFC2
:100048001FF0F4CF20F0F6CF21F0F7CF22F0F8CF51
:1000580023F0F5CF24F03FC025F040C026F041C082
:1000680027F042C028F028C042F027C041F026C03F
:1000780040F025C03FF024C0F5FF23C0F8FF22C0A0
:10008800F7FF21C0F6FF20C0F4FF1FC0F3FF1EC01A
:10009800DAFF1DC0D9FF1CC0E2FF1BC0E1FF1AC078
:1000A800EAFF19C0E9FF18C0FBFF17C0FAFF16C026
:1000B800E0FF15C0E8FF14C0D8FF3F901000B4EF70
:0200C80016F030
:100800000001000A006400E80310272325640000AB
:100810000001AC51AD11D8B410EF04F012EF04F0A8
:1008200023EF04F0ACC0D9FFADC0DAFFAAC0DEFFF1
:10083000ABC0DDFF23EF04F023EF04F00001AA4B6F
:10084000AB2B23EF04F0AAC0D9FFABC0DAFFDF5017
:10085000AF6FAF518AEC16F0D8B031EF04F033EF40
:1008600004F01EEF04F035EF04F0000E0001B06F4D
:100870002D0EAF19D8A43FEF04F041EF04F047EF7D
:1008800004F0010EB06FAA4BAB2B56EF04F02B0E09
:10089000AF19D8A44EEF04F050EF04F056EF04F077
:1008A000AA4BAB2B56EF04F056EF04F0000EAF6FDF
:1008B000000EB26F000EB36F000EB46F000EB56F76
:1008C000000EB16F64EF04F0B0B969EF04F06BEFA4
:1008D00004F07DEF04F0AAC0D9FFABC0DAFF2E0E02
:1008E000DE18D8A476EF04F078EF04F07DEF04F082
:1008F000B089AA4BAB2B64EF04F0AAC0D9FFABC000
:10090000DAFFDF50FEEC16F0D8B089EF04F08BEF81
:1009100004F08FEF04F0DEEF04F0DEEF04F00001EE
:10092000B083090EAF19D8B498EF04F09AEF04F031
:10093000CEEF04F0B0A99FEF04F0A1EF04F0A2EF16
:1009400004F0B107AF2BB2C060F0B3C061F0B4C027
:1009500062F0B5C063F00A0E646F000E656F000EA2
:10096000666F000E676F50EC16F060C0B2F061C0A9
:10097000B3F062C0B4F063C0B5F0AAC0D9FFABC099
:10098000DAFFDF500001AE6FD00EAE27AE51B227B6
:10099000000EB323B423B523D8EF04F0B0B9D3EFDE
:1009A00004F0D5EF04F0D8EF04F0B12BD8EF04F049
:1009B000AA4BAB2B64EF04F064EF04F0000E0001CF
:1009C000AF6FAAC0D9FFABC0DAFF650EDE18D8B48E
:1009D000ECEF04F0EEEF04F0FDEF04F0AAC0D9FF55
:1009E000ABC0DAFF450EDE18D8A4F9EF04F0FBEF38
:1009F00004F09CEF05F0FDEF04F0AA4BAB2BAAC06E
:100A0000D9FFABC0DAFF2D0EDE18D8A40AEF05F02F
:100A10000CEF05F011EF05F0B087AA4BAB2B2AEFD6
:100A200005F0AAC0D9FFABC0DAFF2B0EDE18D8A4A0
:100A30001CEF05F01EEF05F02AEF05F0AA4BAB2BDB
:100A40002AEF05F02AEF05F02AEF05F0AA4BAB2BB1
:100A50002AEF05F0AAC0D9FFABC0DAFF300EDE18CE
:100A6000D8B435EF05F037EF05F026EF05F039EF94
:100A700005F0AAC0D9FFABC0DAFFDF50FEEC16F0DC
:100A8000D8A045EF05F047EF05F08FEF05F0AAC0BD
:100A9000D9FFABC0DAFFDF50D00F0001AF6FAA4B18
:100AA000AB2BAAC0D9FFABC0DAFFDF50FEEC16F0CB
:100AB000D8A05DEF05F05FEF05F08FEF05F0AAC05D
:100AC000D9FFABC0DAFFDF500001AE6FAF510A0DA6
:100AD000F350AE25D00FAF6FAA4BAB2BAAC0D9FFF6
:100AE000ABC0DAFFDF50FEEC16F0D8A07AEF05F0CD
:100AF0007CEF05F08FEF05F0AAC0D9FFABC0DAFF9D
:100B0000DF500001AE6FAF510A0DF350AE25D00F8C
:100B1000AF6F8FEF05F08FEF05F08FEF05F000015D
:100B2000B0A795EF05F097EF05F09CEF05F0AF6DDE
:100B30009CEF05F09CEF05F0AF51B127AC51AD1122
:100B4000D8B4A5EF05F0A7EF05F0B8EF05F0B0A316
:100B5000ACEF05F0AEEF05F0B8EF05F0ACC0D9FF93
:100B6000ADC0DAFFAAC0DEFFABC0DDFFB8EF05F015
:100B7000B2C060F0B3C061F0B4C062F0B5C063F061
:100B8000010EF0EC11F060C0B2F061C0B3F062C0D1
:100B9000B4F063C0B5F00001B251B311B411B51196
:100BA000D8A4D5EF05F0D7EF05F0E3EF05F0000E80
:100BB000AA6F000EAB6F000EAC6F000EAD6F3EEF74
:100BC00007F03EEF07F0B1BFEAEF05F0E8EF05F000
:100BD0007DEF06F0B16D0CEF06F0B2C091F0B3C03E
:100BE00092F0B4C093F0B5C094F0F90E956F020E78
:100BF000966F150E976F500E986FE1EC0EF091C046
:100C0000B2F092C0B3F093C0B4F094C0B5F0F60E59
:100C10000001B1270CEF06F0B151800A760FD8B071
:100C200014EF06F016EF06F0EDEF05F038EF06F0E2
:100C300038EF06F0B2C091F0B3C092F0B4C093F0B8
:100C4000B5C094F0000E956F000E966F200E976F52
:100C5000410E986FE1EC0EF091C0B2F092C0B3F08B
:100C600093C0B4F094C0B5F00001B10738EF06F0BE
:100C7000B151D8A43EEF06F040EF06F01AEF06F0AF
:100C800042EF06F0B2C060F0B3C061F0B4C062F0F1
:100C9000B5C063F0000E646F000E656F800E666F66
:100CA000000E676FE5EC12F00001D8B05AEF06F0C5
:100CB0005CEF06F019EF07F0B0A161EF06F063EF0B
:100CC00006F06FEF06F0000EAA6F000EAB6F800EFD
:100CD000AC6F800EAD6F3EEF07F03EEF07F0000EF9
:100CE000AA6F000EAB6F800EAC6F000EAD6F3EEFC3
:100CF00007F03EEF07F019EF07F0B151800A7F0FC0
:100D0000D8A085EF06F087EF06F019EF07F0AAEFFD
:100D100006F0AAEF06F0B2C078F0B3C079F0B4C024
:100D20007AF0B5C07BF0F90E7C6F020E7D6F150E68
:100D30007E6F500E7F6FA9EC0CF078C0B2F079C0D6
:100D4000B3F07AC0B4F07BC0B5F0F60E0001B12765
:100D5000AAEF06F00A0EB161B0EF06F0B2EF06F0AE
:100D60008BEF06F0D4EF06F0D4EF06F0B2C078F0C7
:100D7000B3C079F0B4C07AF0B5C07BF0000E7C6FE0
:100D8000000E7D6F200E7E6F410E7F6FA9EC0CF080
:100D900078C0B2F079C0B3F07AC0B4F07BC0B5F0DF
:100DA0000001B107D4EF06F0B151D8A4DAEF06F094
:100DB000DCEF06F0B6EF06F0DEEF06F0FF0E606F38
:100DC000FF0E616F7F0E626F7F0E636FB2C064F0C3
:100DD000B3C065F0B4C066F0B5C067F0E5EC12F0E2
:100DE0000001D8B0F6EF06F0F8EF06F019EF07F0C3
:100DF000B0A1FDEF06F0FFEF06F00BEF07F0000EDD
:100E0000AA6F000EAB6F800EAC6F800EAD6F3EEF21
:100E100007F03EEF07F0000EAA6F000EAB6F800EDA
:100E2000AC6F000EAD6F3EEF07F03EEF07F019EF2D
:100E300007F0B0A11EEF07F020EF07F034EF07F046
:100E4000B2C060F0B3C061F0B4C062F0B5C063F08E
:100E5000DDEC16F060C0B2F061C0B3F062C0B4F077
:100E600063C0B5F034EF07F0B2C0AAF0B3C0ABF086
:100E7000B4C0ACF0B5C0ADF03EEF07F01200000119
:100E80006751800B746F67516725766F66AF4BEFC4
:100E900007F04DEF07F050EF07F0768150EF07F0C5
:100EA0007651D8B456EF07F058EF07F06FEF07F020
:100EB0007629D8A45EEF07F060EF07F06AEF07F03D
:100EC000000E646F000E656F000E666F000E676F98
:100ED0006AEF07F0668F000E676F79EF07F0000E7C
:100EE000646F000E656F000E666F000E676F79EF1E
:100EF00007F06B51800B756F74517519D8B483EF7F
:100F000007F085EF07F088EF07F0748D88EF07F0A2
:100F10006B516B25756F6AAF90EF07F092EF07F09A
:100F200095EF07F0758195EF07F07551D8B49BEFF9
:100F300007F09DEF07F0B4EF07F07529D8A4A3EFF1
:100F400007F0A5EF07F0AFEF07F0000E686F000E97
:100F5000696F000E6A6F000E6B6FAFEF07F06A8F5C
:100F6000000E6B6FBEEF07F0000E686F000E696F2A
:100F7000000E6A6F000E6B6FBEEF07F07651755D65
:100F8000D8B0C5EF07F0C7EF07F0F2EF07F074AD88
:100F9000CCEF07F0CEEF07F0D2EF07F0800E741B16
:100FA000D2EF07F076C077F075C076F077C075F0B5
:100FB00064C077F068C064F077C068F065C077F00F
:100FC00069C065F077C069F066C077F06AC066F006
:100FD00077C06AF067C077F06BC067F077C06BF0DE
:100FE000F2EF07F0000E776F76516C6F6D6B6C1F30
:100FF0006D1F6C4B6D2B75516E6F6F6B6C516E2747
:101000006D516F236FBF0EEF08F06F5109E11A0E9B
:101010006E5DD8A00EEF08F010EF08F04DEF08F06D
:101020006451651166116711D8A419EF08F01CEF1F
:1010300008F0010E1DEF08F0000E776F000E646FD0
:10104000000E656F000E666F000E676F75C076F05C
:1010500058EF08F04DEF08F077A131EF08F033EFCB
:1010600008F039EF08F0D89077310109776F3DEF3C
:1010700008F0D89077333DEF08F064A142EF08F014
:1010800044EF08F047EF08F0778F47EF08F0673537
:101090006733663365336433762B7551765DD8A03C
:1010A00054EF08F056EF08F02CEF08F058EF08F076
:1010B00074BD5DEF08F05FEF08F0A8EF08F076511F
:1010C000D8A465EF08F067EF08F073EF08F0000EA2
:1010D000646F000E656F000E666F000E676F02EFA3
:1010E0000AF002EF0AF068516427695165236A51DA
:1010F00066236B51672367A180EF08F082EF08F049
:1011000058EF09F077A187EF08F089EF08F090EF2A
:1011100008F0D890773377510109776F94EF08F092
:10112000D890773394EF08F064A199EF08F09BEF23
:1011300008F09EEF08F0778F9EEF08F06735673371
:10114000663365336433762B58EF09F058EF09F0B6
:101150006851645D695165596A5166596751800AE1
:101160006C6F6B51800A6C59D8B0B9EF08F0BBEFC7
:1011700008F0F9EF08F064C06CF065C06DF066C06F
:101180006EF067C06FF06C1F6D1F6E1F6F1F6C2BB2
:10119000000E6D236E236F2368516C25706F6951AB
:1011A0006D21716F6A516E21726F6B516F21736F78
:1011B000FF0E7025646FFF0E7121656FFF0E7221A7
:1011C000666FFF0E7321676F800E741B776D77510A
:1011D000D8A4EDEF08F0EFEF08F001EF09F0010EF1
:1011E0006427000E65236623672301EF09F001EFF2
:1011F00009F06851645F6951655B6A51665B6B51C8
:10120000675B6451651166116711D8A40AEF09F094
:101210000CEF09F04DEF09F07751D8A412EF09F067
:1012200014EF09F04DEF09F0000E646F000E656FCA
:10123000000E666F000E676F02EF0AF002EF0AF011
:101240004DEF09F0D890643765376637673777AF69
:101250002CEF09F02EEF09F031EF09F0648131EF46
:1012600009F077A136EF09F038EF09F03CEF09F00B
:10127000D880773740EF09F0D890773740EF09F002
:101280007651D8B446EF09F048EF09F04DEF09F078
:1012900076074DEF09F04DEF09F066AF52EF09F018
:1012A00054EF09F022EF09F058EF09F058EF09F078
:1012B000000E756F77AF5FEF09F061EF09F07DEF1A
:1012C00009F077C06CF07F0E6C17D8B46AEF09F0A4
:1012D0006CEF09F070EF09F0010E756F7DEF09F00A
:1012E00064A175EF09F077EF09F07DEF09F0010EC9
:1012F000756F7DEF09F07DEF09F07551D8B483EF7C
:1013000009F085EF09F0B6EF09F0010E6427000E31
:1013100065236623672367A190EF09F092EF09F038
:10132000B6EF09F064C06CF065C06DF066C06EF099
:1013300067C06FF06F356F336E336D336C336CC0D5
:1013400064F06DC065F06EC066F06FC067F076291E
:10135000D8B4ADEF09F0AFEF09F0B6EF09F0762B96
:10136000B6EF09F0B6EF09F0B6EF09F07629D8B478
:10137000BCEF09F0BEEF09F0C8EF09F07651D8A430
:10138000C4EF09F0C6EF09F0DEEF09F0C8EF09F08D
:10139000000E646F000E656F000E666F000E676FC3
:1013A0007651D8A4D6EF09F0D8EF09F0DEEF09F0B6
:1013B000000E746FDEEF09F0DEEF09F076A1E3EFC7
:1013C00009F0E5EF09F0E8EF09F0668FEBEF09F0BF
:1013D000669FEBEF09F0D8907631676F74AFF3EF4B
:1013E00009F0F5EF09F0F8EF09F0678FF8EF09F071
:1013F00064C064F065C065F066C066F067C067F001
:1014000002EF0AF0120081EC17F0D3EC15F0000E99
:101410000101496F000E486F0EEF0AF00001D25132
:10142000D311D8B416EF0AF018EF0AF0BAEF0AF0A9
:10143000000ED36F000ED26F21EE00F011EE28F0F7
:10144000130EDBCFE3FFE806FCE2000E0101496F5B
:10145000010E486F4DEF0AF0290E01014825D96EA3
:10146000000E4921DA6EFF0E0001BA6FFF0EBB6F4E
:1014700048C1BCF049C1BDF0BA51BC27BB51BD2326
:10148000280EBC25E16E010EBD21E26EDFCFE7FF25
:101490000101484B492B4DEF0AF00001D4510101E5
:1014A000485D4951800A0001BA6FD551800ABA5986
:1014B000D8A05DEF0AF05FEF0AF02CEF0AF0A5EF7D
:1014C0000AF0A5EF0AF0280E0001666F010E676FA3
:1014D000F0EC14F066C0E0F067C0E1F0BAEF0AF09B
:1014E000280E0001B66F010EB76F6BEC17F0B6C097
:1014F000DCF0B7C0DDF0B8C0DEF0B9C0DFF0BAEFA5
:101500000AF0280E0001B66F010EB76F6BEC17F0F2
:10151000B6C0CAF0B7C0CBF0B8C0CCF0B9C0CDF0FF
:10152000BAEF0AF0280E0001B66F010EB76F6BEC30
:1015300017F0B6C0C6F0B7C0C7F0B8C0C8F0B9C0A1
:10154000C9F0BAEF0AF0BAEF0AF02950440AD8B449
:1015500092EF0AF00D0AD8B481EF0AF0190AD8B454
:1015600070EF0AF0060AD8B463EF0AF0BAEF0AF097
:10157000BAEF0AF00001D851D911D8B4C2EF0AF07D
:10158000C4EF0AF00EEF0AF0D6C0DAF0D7C0DBF0F5
:10159000000ED76F000ED66FD6C0D8F0D7C0D9F0E6
:1015A000140E6C6F010E6D6F0B0E6E6F080E6F6F69
:1015B000DAC070F0DBC071F0F0EC10F0140E000136
:1015C000616F010E626F1DEC17F0BD0E0001956F8B
:1015D000370E966F060E976F3E0E986F000E7C6F5B
:1015E000000E7D6F700E7E6F420E7F6FDAC060F06E
:1015F000DBC061F0000E61BFFF0E626F636F010E12
:10160000F0EC11F060C078F061C079F062C07AF05F
:1016100063C07BF0A9EC0CF078C091F079C092F037
:101620007AC093F07BC094F0E1EC0EF091C0AAF088
:1016300092C0ABF093C0ACF094C0ADF046EC14F0A7
:10164000AAC0D0F0ABC0D1F0D0C0BAF0D1C0BBF0CE
:101650000001BA1FBB1FBA4BBB2BE051BA27E151A7
:10166000BB23BAC060F0BBC061F0000E61BFFF0ECB
:10167000626F636F010EF0EC11F060C091F061C019
:1016800092F062C093F063C094F0000E0001956F79
:10169000400E966F1C0E976F460E986FE1EC0EF0A1
:1016A00091C0C2F092C0C3F093C0C4F094C0C5F022
:1016B000CAC07CF0CBC07DF0CCC07EF0CDC07FF046
:1016C000000E0001956F000E966FF00E976F420EA0
:1016D000986FBEC068F0BFC069F0C0C06AF0C1C0FA
:1016E0006BF0C2C064F0C3C065F0C4C066F0C5C092
:1016F00067F03FEC07F064C091F065C092F066C0FF
:1017000093F067C094F0E1EC0EF091C078F092C0D5
:1017100079F093C07AF094C07BF0A9EC0CF078C01B
:101720003CF179C03DF17AC03EF17BC03FF1C6C0CB
:101730007CF0C7C07DF0C8C07EF0C9C07FF0BD0E90
:101740000001956F370E966F060E976F3E0E986FDD
:10175000C2C068F0C3C069F0C4C06AF0C5C06BF015
:10176000BEC060F0BFC061F0C0C062F0C1C063F035
:10177000DDEC16F060C064F061C065F062C066F038
:1017800063C067F03FEC07F064C091F065C092F071
:1017900066C093F067C094F0E1EC0EF091C078F071
:1017A00092C079F093C07AF094C07BF0A9EC0CF071
:1017B00078C040F179C041F17AC042F17BC043F179
:1017C000000E00017C6F000E7D6F700E7E6F420E6A
:1017D0007F6F40C178F041C179F042C17AF043C1D6
:1017E0007BF0A9EC0CF078C068F079C069F07AC0A1
:1017F0006AF07BC06BF0C2C07CF0C3C07DF0C4C097
:101800007EF0C5C07FF0DCC078F0DDC079F0DEC0CE
:101810007AF0DFC07BF0A9EC0CF078C064F079C0FE
:1018200065F07AC066F07BC067F03FEC07F064C0FB
:1018300044F165C045F166C046F167C047F1BD0E91
:1018400000017C6F370E7D6F060E7E6F3E0E7F6F40
:101850003CC178F03DC179F03EC17AF03FC17BF0E8
:10186000A9EC0CF078C068F079C069F07AC06AF031
:101870007BC06BF044C164F045C165F046C166F0C1
:1018800047C167F03FEC07F064C0AAF065C0ABF059
:1018900066C0ACF067C0ADF046EC14F0AAC0CEF064
:1018A000ABC0CFF00001CFBF5FEF0CF0CF5109E12B
:1018B000140ECE5DD8A05FEF0CF061EF0CF067EF77
:1018C0000CF0000ECF6F080ECE6F7DEF0CF0CFAF97
:1018D00073EF0CF0ED0ECE5DFF0ECF59D8B073EF65
:1018E0000CF075EF0CF07DEF0CF0FF0ECF6FF80EE3
:1018F000CE6F7DEF0CF07DEF0CF0CE51BB5EBB28C0
:10190000D8A485EF0CF087EF0CF08BEF0CF0FE0EF7
:10191000BB6E99EF0CF0BB50D8A491EF0CF093EF95
:101920000CF099EF0CF0010EBB6E99EF0CF099EFF3
:101930000CF0C2C0BEF0C3C0BFF0C4C0C0F0C5C090
:10194000C1F00EEF0AF00EEF0AF00EEF0AF063EFAF
:1019500000F000017B51800B846F7B517B258A6FE7
:101960007AAFB5EF0CF0B7EF0CF0BAEF0CF08A815C
:10197000BAEF0CF08A51D8B4C0EF0CF0C2EF0CF003
:10198000D7EF0CF08A29D8A4C8EF0CF0CAEF0CF0FE
:10199000D4EF0CF0000E786F000E796F000E7A6FA6
:1019A000000E7B6FD4EF0CF07A8FE1EF0CF0000E9D
:1019B000786F000E796F000E7A6F000E7B6FE1EF8B
:1019C0000CF07F51800B841B7F517F25856F7EAF8C
:1019D000ECEF0CF0EEEF0CF0F1EF0CF08581F1EF95
:1019E0000CF08551D8B4F7EF0CF0F9EF0CF00EEFD6
:1019F0000DF08529D8A4FFEF0CF001EF0DF00BEFEF
:101A00000DF0000E7C6F000E7D6F000E7E6F000EDD
:101A10007F6F0BEF0DF07E8F16EF0DF0000E7C6FD9
:101A2000000E7D6F000E7E6F000E7F6F8551D8B463
:101A30001CEF0DF01EEF0DF028EF0DF08A51D8A429
:101A400024EF0DF026EF0DF034EF0DF028EF0DF040
:101A5000000E786F000E796F000E7A6F000E7B6FAC
:101A6000E0EF0EF0E0EF0EF07E517803F3CF8FF051
:101A7000F4CF90F08F51866F876B886B896B905194
:101A80008B6F8C6B8D6B8E6B7D517903F3CF8FF0E9
:101A9000F4CF90F08F518627000E87238823892367
:101AA00090518B27000E8C238D238E237C517A033B
:101AB000F3CF8FF0F4CF90F08F518627000E87235D
:101AC0008823892390518B27000E8C238D238E230E
:101AD00088C089F087C088F086C087F0866B7C510B
:101AE0007903F3CF8FF0F4CF90F08F518627905188
:101AF0008723000E8823000E89237D517803F3CFBE
:101B00008FF0F4CF90F08F51862790518723000EED
:101B10008823000E892388C089F087C088F086C09A
:101B200087F0866B7C517803F3CF8FF0F4CF90F081
:101B30008F51862790518723000E8823000E89231A
:101B40007E517903F3CF8FF0F4CF90F08F518B2734
:101B500090518C23000E8D23000E8E237D517A032D
:101B6000F3CF8FF0F4CF90F08F518B2790518C23CF
:101B7000000E8D23000E8E237E517A03F3CF8FF05B
:101B8000F4CF90F08F51806F9051816F826B836B97
:101B900082C083F081C082F080C081F0806B805170
:101BA0008B2781518C2382518D2383518E2386C0B4
:101BB00080F087C081F088C082F089C083F0190E60
:101BC000E7EF0DF0D8908333823381338033E82EF2
:101BD000E2EF0DF080518B2781518C2382518D23B0
:101BE00083518E2388C089F087C088F086C087F033
:101BF000866B85518AC080F0816B8027000E81231F
:101C0000820E80258F6FFF0E8121906F1FEF0EF0E7
:101C1000D8908B378C378D378E3789AF12EF0EF017
:101C200014EF0EF015EF0EF08B81D89086378737C2
:101C3000883789378F07D8A090071FEF0EF08DAF38
:101C400024EF0EF026EF0EF008EF0EF028EF0EF066
:101C5000000E856F89AF2FEF0EF031EF0EF059EFC8
:101C60000EF0FF0E8615806FFF0E8715816FFF0E39
:101C70008815826F7F0E8915836F805181118211C3
:101C80008311D8B446EF0EF048EF0EF04CEF0EF093
:101C9000010E856F59EF0EF08BA151EF0EF053EF4F
:101CA0000EF059EF0EF0010E856F59EF0EF059EF5F
:101CB0000EF08551D8B45FEF0EF061EF0EF089EFB2
:101CC0000EF0010E8B27000E8C238D238E238EA108
:101CD0006CEF0EF06EEF0EF089EF0EF08BC080F01F
:101CE0008CC081F08DC082F08EC083F08335833349
:101CF00082338133803380C08BF081C08CF082C00E
:101D00008DF083C08EF08F4B902B89EF0EF089EF12
:101D10000EF090BF94EF0EF0905108E18F29D8A0FB
:101D200094EF0EF096EF0EF0A0EF0EF0000E8B6F1A
:101D3000000E8C6F800E8D6F7F0E8E6FD4EF0EF0C5
:101D400090BFADEF0EF0905106E18F05D8B0ABEF2C
:101D50000EF0ADEF0EF0B9EF0EF0000E8B6F000E2F
:101D60008C6F000E8D6F000E8E6F000E846FD4EF9F
:101D70000EF08FC08AF0FF0E8B17FF0E8C177F0EB0
:101D80008D17000E8E178AA1C8EF0EF0CAEF0EF065
:101D9000CDEF0EF08D8FCDEF0EF0D8908A318E6F93
:101DA000D4EF0EF0D4EF0EF084518E138BC078F088
:101DB0008CC079F08DC07AF08EC07BF0E0EF0EF031
:101DC000120000019451800B9D6F94519425A86FCF
:101DD00093AFEDEF0EF0EFEF0EF0F2EF0EF0A88103
:101DE000F2EF0EF0A851D8B4F8EF0EF0FAEF0EF0C3
:101DF00011EF0FF0A829D8A400EF0FF002EF0FF0B9
:101E00000CEF0FF0000E916F000E926F000E936FAB
:101E1000000E946F0CEF0FF0938F000E946F1BEF7A
:101E20000FF0000E916F000E926F000E936F000E78
:101E3000946F1BEF0FF09851800B9D1B98519825C4
:101E4000A96F97AF26EF0FF028EF0FF02BEF0FF0F1
:101E5000A9812BEF0FF0A951D8B431EF0FF033EF78
:101E60000FF04AEF0FF0A929D8A439EF0FF03BEF9C
:101E70000FF045EF0FF0000E956F000E966F000EFD
:101E8000976F000E986F45EF0FF0978F000E986FC9
:101E900054EF0FF0000E956F000E966F000E976FC7
:101EA000000E986F54EF0FF09551961197119811FD
:101EB000D8A45DEF0FF05FEF0FF077EF0FF0000E9B
:101EC000916F000E926F000E936F000E946F800E54
:101ED00093137F0E941391C091F092C092F093C02F
:101EE00093F094C094F0EFEF10F0EFEF10F0A851E2
:101EF000D8A47DEF0FF07FEF0FF093EF0FF0000EFF
:101F0000916F000E926F000E936F000E946F91C050
:101F100091F092C092F093C093F094C094F0EFEFE0
:101F200010F0EFEF10F0A951996F9A6B991F9A1F5B
:101F3000994B9A2BA8519B6F9C6B99519B279A5157
:101F40009C237F0E9B25A26F000E9C21A36F91C046
:101F50009EF092C09FF093C0A0F094C0A1F0000E3C
:101F6000916F000E926F000E936F000E946F000E33
:101F7000A46F000EA56F000EA66F000EA76F000ED7
:101F8000A96FFFEF0FF0A951D8B4C9EF0FF0CBEF55
:101F90000FF0E4EF0FF0D8909E379F37A037A137AE
:101FA000D8909137923793379437A7AFDAEF0FF085
:101FB000DCEF0FF0DDEF0FF09181D890A437A5375B
:101FC000A637A737E4EF0FF095519E5D96519F59C4
:101FD0009751A0599851A159D8A0F1EF0FF0F3EF04
:101FE0000FF0FEEF0FF0A78D95519E5F96519F5B0E
:101FF0009751A05B9851A15BFEEF0FF0A92B190E32
:10200000A96505EF10F007EF10F0C3EF0FF009EF2F
:1020100010F09E519F11A011A111D8B412EF10F031
:1020200014EF10F030EF10F0A48130EF10F030EF2B
:1020300010F0D8909137923793379437A7AF23EFAA
:1020400010F025EF10F026EF10F09181D890A43712
:10205000A537A637A737A207D8A0A30730EF10F0FF
:1020600093AF35EF10F037EF10F019EF10F039EFB4
:1020700010F0000EA96FA7AF40EF10F042EF10F084
:102080006AEF10F0FF0EA415996FFF0EA5159A6F59
:10209000FF0EA6159B6F7F0EA7159C6F99519A1185
:1020A0009B119C11D8B457EF10F059EF10F05DEF71
:1020B00010F0010EA96F6AEF10F091A162EF10F01D
:1020C00064EF10F06AEF10F0010EA96F6AEF10F0E4
:1020D0006AEF10F0A951D8B470EF10F072EF10F061
:1020E0009AEF10F0010E9127000E92239323942370
:1020F00094A17DEF10F07FEF10F09AEF10F091C0F7
:1021000099F092C09AF093C09BF094C09CF09C35DB
:102110009C339B339A33993399C091F09AC092F0D3
:102120009BC093F09CC094F0A24BA32B9AEF10F0AD
:102130009AEF10F0A3BFA5EF10F0A35108E1A22978
:10214000D8A0A5EF10F0A7EF10F0B4EF10F0000E3C
:10215000A36FA269000E916F000E926F000E936F35
:10216000000E946FB4EF10F0A3BFC1EF10F0A351B5
:1021700006E1A205D8B0BFEF10F0C1EF10F0D1EF2B
:1021800010F0000EA36F000EA26F000E916F000EF4
:10219000926F000E936F000E946F000E9D6FD1EF43
:1021A00010F0A2C0A8F0A8A1D8EF10F0DAEF10F05C
:1021B000DDEF10F0938FE0EF10F0939FE0EF10F061
:1021C000D890A831946F9D51941391C091F092C012
:1021D00092F093C093F094C094F0EFEF10F01200DF
:1021E000700E0001736F000E746FD2EF11F0250EA8
:1021F0007919D8B4FEEF10F000EF11F00AEF11F0EA
:102200006CC0D9FF6DC0DAFF79C0DFFF6C4B6D2B5E
:10221000D2EF11F0000E756F18EF11F0E7EF11F02B
:1022200030EF11F030EF11F0D2EF11F030EF11F08C
:102230006EC0F6FF6FC0F7FF6E4B6F2B0800F5CF37
:1022400079F07951000AD8B4E7EF11F0640AD8B4F4
:1022500030EF11F00D0AD8B430EF11F0D2EF11F0D9
:1022600073C0D9FF74C0DAFFDECF77F0DDCF78F02E
:10227000020E7327000E742378BF43EF11F041EF75
:1022800011F04BEF11F0030E7513776D781FD8B076
:10229000782B4BEF11F0010E796F050E7919D8A448
:1022A00054EF11F056EF11F05AEF11F07FEF11F0EB
:1022B0007FEF11F07951020D010EF324F66E080E36
:1022C000F420F76E0900F550775D0900F550785954
:1022D000D8B06DEF11F06FEF11F073EF11F07FEFE9
:1022E00011F07FEF11F0792B050E7919D8A47BEF4F
:1022F00011F07DEF11F05AEF11F07FEF11F075C082
:1023000072F0030E7217D8B488EF11F08AEF11F053
:1023100094EF11F06CC0D9FF6DC0DAFF2D0EDF6EA7
:102320006C4B6D2B94EF11F079C076F0C5EF11F086
:102330007651020D010EF324F66E080EF420F76EAE
:102340000900F5CF62F00A00F5CF63F077C060F0C6
:1023500078C061F08EEC15F060C067F061C068F085
:10236000000E00016A6F0A0E696F13EC16F000018F
:102370006751300F796F6CC0D9FF6DC0DAFF79C03B
:10238000DFFF6C4B6D2BC5EF11F076077629D8A4D3
:10239000CCEF11F0CEEF11F098EF11F0D2EF11F079
:1023A000D2EF11F06EC0F6FF6FC0F7FF6E4B6F2BD0
:1023B0000800F5CF79F07951D8A4E1EF11F0E3EFFF
:1023C00011F0F7EF10F0E7EF11F0E7EF11F06CC04C
:1023D000D9FF6DC0DAFF000EDF6EEFEF11F01200D3
:1023E0000001686F00016851D8B4F9EF11F0FBEFFC
:1023F00011F01DEF12F063BF02EF12F000EF12F0C8
:102400001DEF12F060C064F061C065F062C066F05C
:1024100063C067F0641F651F661F671F642B000E93
:1024200065236623672364C06AF065C06BF066C0ED
:102430006CF067C06DF027EF12F060C06AF061C009
:102440006BF062C06CF063C06DF027EF12F060516A
:10245000611162116311D8A430EF12F032EF12F063
:102460003EEF12F0000E606F000E616F000E626FA3
:10247000000E636FE4EF12F0E4EF12F0960E696F56
:102480004AEF12F0692BD8906D336C336B336A339B
:102490004AEF12F0000E6A15646F000E6B15656F3F
:1024A000000E6C15666FFE0E6D15676F6451651139
:1024B00066116711D8A45FEF12F061EF12F042EFDE
:1024C00012F071EF12F071EF12F0692B010E6A2712
:1024D000000E6B236C236D23D8906D336C336B33FC
:1024E0006A33000E6A15646F000E6B15656F000E7F
:1024F0006C15666FFF0E6D15676F6451651166117F
:102500006711D8A486EF12F088EF12F065EF12F091
:1025100094EF12F094EF12F06907D8906A376B3796
:102520006C376D3794EF12F06CBF99EF12F09BEFA0
:1025300012F0A5EF12F0020E6961A1EF12F0A3EF05
:1025400012F08CEF12F0A5EF12F069B1AAEF12F0C1
:10255000ACEF12F0B4EF12F0FF0E6A17FF0E6B171C
:102560007F0E6C17FF0E6D17D890693369C064F049
:10257000656B666B676B64C067F0666B656B646BFD
:1025800064516A1365516B1366516C1367516D1377
:102590006851D8B4CEEF12F0D0EF12F0DAEF12F0AB
:1025A00063BFD7EF12F0D5EF12F0DAEF12F06D8FB4
:1025B000DAEF12F06AC060F06BC061F06CC062F0DC
:1025C0006DC063F0E4EF12F01200000E0001601520
:1025D000686F000E6115696F800E62156A6F7F0E5D
:1025E00063156B6F685169116A116B11D8A4FBEF09
:1025F00012F0FDEF12F007EF13F0000E606F000E07
:10260000616F000E626F000E636F07EF13F0000E34
:102610006415686F000E6515696F800E66156A6F28
:102620007F0E67156B6F685169116A116B11D8A421
:102630001CEF13F01EEF13F028EF13F0000E646F81
:10264000000E656F000E666F000E676F28EF13F0C7
:1026500063AF2DEF13F02FEF13F04EEF13F060C0C8
:1026600068F061C069F062C06AF063C06BF0681F17
:10267000691F6A1F6B1F682B000E69236A236B2377
:10268000000E6825606F000E6921616F000E6A21DF
:10269000626F800E6B21636F4EEF13F067AF53EFE5
:1026A00013F055EF13F072EF13F064C068F065C0DB
:1026B00069F066C06AF067C06BF0681F691F6A1F27
:1026C0006B1F682B000E69236A236B23000E68259D
:1026D000646F000E6921656F000E6A21666F800EBF
:1026E0006B21676F000E601B000E611B000E621BEA
:1026F000800E631B000E641B000E651B000E661B24
:10270000800E671B6451605D655161596651625965
:1027100067516359D8B08FEF13F091EF13F094EF36
:1027200013F0D89099EF13F0D88099EF13F099EF48
:1027300013F012000600FACF02F0FBCF03F0E9CF4E
:1027400004F0EACF05F0E1CF06F0E2CF07F0D9CFF1
:1027500008F0DACF09F0F3CF0AF0F4CF0BF0F6CFA0
:102760000CF0F7CF0DF0F8CF0EF0F5CF0FF03FC023
:1027700010F040C011F041C012F042C013F0F0A0C0
:10278000C4EF13F0C6EF13F0CBEF13F0000ECC6ED6
:10279000F09020EF14F0F2A4D0EF13F0D2EF13F08A
:1027A000DAEF13F0000E0001D96F010ED86FF2942A
:1027B00020EF14F0F2A2DFEF13F0E1EF13F0E7EFF8
:1027C00013F00001D64BD72BF29220EF14F09EAA03
:1027D000ECEF13F0EEEF13F020EF14F0290E3D2490
:1027E000D96E000E3E20DA6EAECFDFFF290E3D24FB
:1027F000D96E000E3E20DA6E610EDE18D8A403EF0B
:1028000014F005EF14F014EF14F03DC0D4F03EC006
:10281000D5F0000E3E6E000E3D6E000E0001D36F2F
:10282000010ED26F20EF14F03D4A3E2A20EF14F043
:1028300020EF14F020EF14F020EF14F020EF14F04C
:1028400013C042F012C041F011C040F010C03FF080
:102850000FC0F5FF0EC0F8FF0DC0F7FF0CC0F6FF6C
:102860000BC0F4FF0AC0F3FF09C0DAFF08C0D9FFAC
:1028700007C0E2FF06C0E1FF05C0EAFF04C0E9FFB0
:1028800003C0FBFF02C0FAFF3F9211000001AC350C
:10289000AD35B36FB351D8A450EF14F052EF14F02C
:1028A0005EEF14F0000EAA6F000EAB6F000EAC6F5F
:1028B000000EAD6FEFEF14F0EFEF14F0AAC0AEF022
:1028C000ABC0AFF0ACC0B0F0ADC0B1F0200E6EEF59
:1028D00014F0D890B133B033AF33AE33E82E69EF94
:1028E00014F0AE51B26FAC8FFF0EAA17FF0EAB17EC
:1028F000FF0EAC17000EAD17960EB35FB3BF85EF9A
:1029000014F083EF14F0A9EF14F0B351800A970F7D
:10291000D8B08DEF14F08FEF14F09DEF14F0000E8F
:10292000AA6F000EAB6F000EAC6F000EAD6FEFEF35
:1029300014F0EFEF14F09DEF14F0D890AD33AC33FA
:10294000AB33AA33B33F9DEF14F0D3EF14F0D3EFC2
:1029500014F01F0EB365AFEF14F0B1EF14F0C7EF32
:1029600014F0000EAA6F000EAB6F000EAC6F000EDD
:10297000AD6FEFEF14F0EFEF14F0C7EF14F0D89055
:10298000AA37AB37AC37AD37B307C7EF14F0B35145
:10299000D8A4CDEF14F0CFEF14F0BFEF14F0D3EFC5
:1029A00014F0D3EF14F0B251D8B4D9EF14F0DBEF38
:1029B00014F0E5EF14F0AD1FAC1FAB1FAA6D000EB5
:1029C000AB23AC23AD23E5EF14F0AAC0AAF0ABC053
:1029D000ABF0ACC0ACF0ADC0ADF0EFEF14F0120056
:1029E000F7EF14F00001664B672BF7EF14F066C0A9
:1029F000D9FF67C0DAFF200EDE18D8B402EF15F059
:102A000004EF15F0F2EF14F066C0D9FF67C0DAFFEB
:102A1000090EDE18D8B40FEF15F011EF15F0F2EF34
:102A200014F013EF15F0000E00016C6F000E6B6FC9
:102A3000000E6A6F66C0D9FF67C0DAFF2D0EDE1880
:102A4000D8A425EF15F027EF15F02CEF15F06A2B21
:102A5000664B672B62EF15F066C0D9FF67C0DAFFDF
:102A60002B0EDE18D8A437EF15F039EF15F062EF12
:102A700015F0664B672B62EF15F062EF15F062EF11
:102A800015F06BC060F06CC061F0000E0001636F68
:102A90000A0E626F55EC17F066C0D9FF67C0DAFF07
:102AA000DF500001686F696B6051682761516923CD
:102AB000D00E68256B6FFF0E69216C6F664B672B1C
:102AC00062EF15F066C0D9FF67C0DAFFDF50FEEC99
:102AD00016F0D8B06EEF15F070EF15F041EF15F06D
:102AE00072EF15F000016A51D8B479EF15F07BEF61
:102AF00015F089EF15F06BC068F06CC069F0681FC5
:102B0000691F684B692B68C066F069C067F08DEF7C
:102B100015F06BC066F06CC067F01200000E00018B
:102B2000666F000E656F62516311D8B49AEF15F0AD
:102B30009CEF15F0CEEF15F0010E646FA6EF15F0C7
:102B4000D89062376337642BA6EF15F063AFABEF15
:102B500015F0ADEF15F0A0EF15F0B1EF15F0B1EFF6
:102B600015F0D890653766376251605D63516159E1
:102B7000D8A0BDEF15F0BFEF15F0C6EF15F062510C
:102B8000605F6351615B6581C6EF15F0D890633378
:102B90006233642FB1EF15F0CEEF15F065C060F031
:102BA00066C061F01200000E826E82CF81FF81CF7D
:102BB00080FF000E8B6E8BCF8AFF8ACF89FFC1808A
:102BC000C182C184C186000E926E030E936E949CE6
:102BD000948ED58CD59AD596D580D582D584CA5079
:102BE000FC0B0209CA6ECA84CB68AF0EBB6ECF0E57
:102BF000BA16BA50F00B0C09BA6EAB8EAB9CAB8810
:102C0000AC98AC9CAC8AAC840C0EAF6ED08EF28EBD
:102C1000F28CF288F28AF184F19CF19AF086F08CC1
:102C20009D8A9F8A1200000169516A11D8B41BEF76
:102C300016F01DEF16F04BEF16F0010E6B6F27EF3D
:102C400016F0D89069376A376B2B27EF16F06AAF0A
:102C50002CEF16F02EEF16F021EF16F032EF16F0F3
:102C600032EF16F06951675D6A516859D8A03BEFA1
:102C700016F03DEF16F043EF16F06951675F6A51A9
:102C8000685B43EF16F0D8906A3369336B2F32EFED
:102C900016F04BEF16F067C067F068C068F01200DE
:102CA000000E0001686F000E696F000E6A6F000E63
:102CB0006B6F5BEF16F060A160EF16F062EF16F03D
:102CC0006CEF16F0645168276551692366516A23D9
:102CD00067516B236CEF16F0D89064376537663711
:102CE0006737D89063336233613360336051611169
:102CF00062116311D8A47FEF16F081EF16F05BEF3D
:102D000016F068C060F069C061F06AC062F06BC024
:102D100063F012000001626F010E0001616F200E6E
:102D20006219D8B496EF16F098EF16F0AEEF16F0E1
:102D30000E0E62619EEF16F0A0EF16F0AAEF16F0ED
:102D4000090E6261A6EF16F0A8EF16F0AEEF16F0CE
:102D5000AAEF16F0000E616FAEEF16F061C060F0E2
:102D60006031B3EF16F01200140EF66E2F0EF76EF0
:102D7000000EF86E00EEDCF010EE06F00900F5CF64
:102D8000EEFFE550E150FAE101EE00F0280EEE6AA8
:102D9000E806FDE100EEBEF01E0EEE6AE806FDE17B
:102DA00000EE29F0160EEE6AE806FDE13F903F9234
:102DB000000EF86E000103EF0AF00001605161118E
:102DC00062116311D8B4E7EF16F0E9EF16F0F3EFF4
:102DD00016F0000E601B000E611B000E621B800EC1
:102DE000631BF3EF16F060C060F061C061F062C079
:102DF00062F063C063F0FDEF16F012000001626F35
:102E0000000E0001616F3A0E626109EF17F00BEFDF
:102E100017F017EF17F02F0E626511EF17F013EF91
:102E200017F017EF17F0010E616F17EF17F061C081
:102E300060F060311CEF17F012002BEF17F061C04B
:102E4000D9FF62C0DAFFDF503AEC17F00001614BA6
:102E5000622B2BEF17F061C0D9FF62C0DAFFDF50A1
:102E6000D8A435EF17F037EF17F01FEF17F039EF51
:102E700017F012000001606F60C0ADFF40EF17F067
:102E80009EA845EF17F047EF17F040EF17F04BEF14
:102E900017F04BEF17F0ACA250EF17F052EF17F00E
:102EA0004BEF17F054EF17F012000001605162036E
:102EB000F3CF64F0F4CF65F060516303F3506527FE
:102EC00061516203F350652764C060F065C061F032
:102ED0006AEF17F01200B6C0AAF0B7C0ABF0000E50
:102EE0000001AC6F000EAD6F08EC04F0AAC0B6F0A4
:102EF000ABC0B7F0ACC0B8F0ADC0B9F080EF17F020
:102F00001200D350FC0B0209D36ED3508F0B500923
:0A2F1000D36E120000004041100EC5
:020000040020DA
:08000000FFFFFFFFFFFFFFFF00
:020000040030CA
:0E0000000009191EFF8080FF0FC00FE00F40A7
:00000001FF
