:0400000063EF00F0BA
:06000800338265ED00F0FB
:100018003380D8CF13F0E8CF14F0E0CF15F0FACF43
:1000280016F0FBCF17F0E9CF18F0EACF19F0E1CFBF
:100038001AF0E2CF1BF0D9CF1CF0DACF1DF0F3CFC6
:100048001EF0F4CF1FF0F6CF20F0F7CF21F0F8CF55
:1000580022F0F5CF23F033C024F034C025F035C0AA
:1000680026F036C027F027C036F026C035F025C068
:1000780034F024C033F023C0F5FF22C0F8FF21C0BC
:10008800F7FF20C0F6FF1FC0F4FF1EC0F3FF1DC01E
:10009800DAFF1CC0D9FF1BC0E2FF1AC0E1FF19C07C
:1000A800EAFF18C0E9FF17C0FBFF16C0FAFF15C02A
:1000B800E0FF14C0E8FF13C0D8FF33901000DEEF54
:1000C80001F00600FACF01F0FBCF02F0E9CF03F010
:1000D800EACF04F0E1CF05F0E2CF06F0D9CF07F080
:1000E800DACF08F0F3CF09F0F4CF0AF0F6CF0BF02F
:1000F800F7CF0CF0F8CF0DF0F5CF0EF033C00FF0BE
:1001080034C010F035C011F036C012F0F2A28FEFF3
:1001180000F091EF00F0ABEF00F0F292F1AC97EF46
:1001280000F099EF00F0A1EF00F0000E306E000E25
:100138002F6ED58EF19CC7EF00F0D59EF18C000E86
:100148002E6E010E2D6EC7EF00F0C7EF00F0F2A47F
:10015800B0EF00F0B2EF00F0B7EF00F0F2942F4AE2
:10016800302AC7EF00F0F0A0BCEF00F0BEEF00F0BF
:10017800C7EF00F0F090000ECC6EC7EF00F0C7EFAD
:1001880000F0C7EF00F012C036F011C035F010C013
:1001980034F00FC033F00EC0F5FF0DC0F8FF0CC0EF
:1001A800F7FF0BC0F6FF0AC0F4FF09C0F3FF08C051
:1001B800DAFF07C0D9FF06C0E2FF05C0E1FF04C0AF
:1001C800EAFF03C0E9FF02C0FBFF01C0FAFF339258
:1001D8001100F5EC01F0B1EC01F0F3EF00F02D5057
:1001E8002E10D8B4FAEF00F0FCEF00F0F3EF00F0B7
:1001F800000E2E6E000E2D6E31503210D8B407EF5F
:1002080001F009EF01F05BEF01F030BE15EF01F0EE
:10021800305009E1090E2F5CD8A015EF01F017EF57
:1002280001F048EF01F02AEF01F02AEF01F0000E8B
:10023800296E020E286E6FEC01F00D0E2A6EFC0E70
:10024800E82EFED72A2EFCD72AEF01F02D502E10CB
:10025800D8B431EF01F033EF01F01BEF01F055EFA7
:1002680001F055EF01F048EF01F0000E296E010E84
:10027800286E6FEC01F00D0E2A6EFC0EE82EFED7EC
:100288002A2EFCD748EF01F02D502E10D8B44FEF8E
:1002980001F051EF01F039EF01F055EF01F055EFA2
:1002A80001F0000E326E000E316EF3EF00F0000E1A
:1002B800326E010E316E000E296E000E286E6FEC44
:1002C80001F0F3EF00F0F3EF00F0F3EF00F0F3EFDD
:1002D80000F063EF00F028042910D8A476EF01F0AD
:1002E80078EF01F08EEF01F0BB50D8B47EEF01F04B
:1002F80080EF01F084EF01F0BB04BB6EB0EF01F0BA
:10030800D59EF18C000E2E6E010E2D6EB0EF01F011
:10031800B0EF01F0020E28182910D8A496EF01F0CA
:1003280098EF01F0B0EF01F0BB28D8B49EEF01F0D0
:10033800A0EF01F0A4EF01F0BB28BB6EB0EF01F015
:10034800D59EF18C000E2E6E010E2D6EB0EF01F0D1
:10035800B0EF01F0B0EF01F01200000E806E000E59
:10036800896E000E816E000E8A6EC180C182C184C2
:10037800C186000E926E030E936ED58CD59AD596D3
:10038800D580D582D584CA50FC0B0209CA6ECA84AE
:10039800CB687F0EBB6ECF0EBA16BA50F00B0C09A5
:1003A800BA6EF28EF288F28AF184F18CF19AF086B4
:1003B800F08C1200FC0EF66E030EF76E000EF86E4F
:1003C8000900F5CF31F00900F5CF32F0306A2F6A15
:1003D8002E6A2D6A2C6A2B6A339033920001EDEF56
:1003E80000F0D350FC0B0209D36ED3508F0B500989
:0603F800D36E12000100AB
:020000040020DA
:08000000FFFFFFFFFFFFFFFF00
:020000040030CA
:0E0000000009191EFF8080FF0FC00FE00F40A7
:00000001FF
