:0400000063EF00F0BA
:060008002A8265ED00F004
:100018002A80D8CF13F0E8CF14F0E0CF15F0FACF4C
:1000280016F0FBCF17F0E9CF18F0EACF19F0E1CFBF
:100038001AF0E2CF1BF0D9CF1CF0DACF1DF0F3CFC6
:100048001EF0F4CF1FF0F6CF20F0F7CF21F0F8CF55
:1000580022F0F5CF23F02AC024F02BC025F02CC0C5
:1000680026F02DC027F027C02DF026C02CF025C083
:100078002BF024C02AF023C0F5FF22C0F8FF21C0CE
:10008800F7FF20C0F6FF1FC0F4FF1EC0F3FF1DC01E
:10009800DAFF1CC0D9FF1BC0E2FF1AC0E1FF19C07C
:1000A800EAFF18C0E9FF17C0FBFF16C0FAFF15C02A
:1000B800E0FF14C0E8FF13C0D8FF2A901000E7EF54
:1000C80000F00600FACF01F0FBCF02F0E9CF03F011
:1000D800EACF04F0E1CF05F0E2CF06F0D9CF07F080
:1000E800DACF08F0F3CF09F0F4CF0AF0F6CF0BF02F
:1000F800F7CF0CF0F8CF0DF0F5CF0EF02AC00FF0C7
:100108002BC010F02CC011F02DC012F012C02DF031
:1001180011C02CF010C02BF00FC02AF00EC0F5FF54
:100128000DC0F8FF0CC0F7FF0BC0F6FF0AC0F4FFC4
:1001380009C0F3FF08C0DAFF07C0D9FF06C0E2FF15
:1001480005C0E1FF04C0EAFF03C0E9FF02C0FBFFEE
:1001580001C0FAFF2A921100DFEC00F0D4EC00F0A5
:10016800B6EF00F089800B0E296E260E286E5E0E03
:10017800E82EFED7282EFCD7292EFAD789900B0E09
:10018800296E260E286E5E0EE82EFED7282EFCD786
:10019800292EFAD7B6EF00F0B6EF00F063EF00F0C3
:1001A800000E806E000E896EC180C182C184C18636
:1001B800000E926E1200D350FC0B0209D36ED38846
:1001C800D38AD38C12002A902A920001B0EF00F053
:020000040020DA
:08000000FFFFFFFFFFFFFFFF00
:020000040030CA
:0E0000000009191EFF8080FF0FC00FE00F40A7
:00000001FF
